:100000000C9462000C948A000C948A000C948A0070
:100010000C948A000C948A000C948A000C948A0038
:100020000C948A000C948A000C948A000C948A0028
:100030000C948A000C948A000C948A000C948A0018
:100040000C94ED020C948A000C94BB020C94950263
:100050000C948A000C948A000C948A000C948A00F8
:100060000C948A000C948A000000000024002700F1
:100070002A0000000000250028002B0000000008D6
:10008000000201000003040700000000000000005F
:1000900000000000230026002900040404040404D6
:1000A0000404020202020202030303030303010227
:1000B00004081020408001020408102001020408F6
:1000C00010208D0411241FBECFEFD8E0DEBFCDBFBE
:1000D00011E0A0E0B1E0E0EFFBE002C005900D927E
:1000E000A231B107D9F721E0A2E1B1E001C01D9230
:1000F000A83BB207E1F710E0C2E6D0E004C02197C8
:10010000FE010E94F005C136D107C9F70E947C03A9
:100110000C94F6050C940000EBE1F1E0A089B189A4
:1001200082E08C93A485B5851C92A685B7858FEC5B
:100130008C93108EA489B58986E08C93A289B389AB
:100140008C9180618C93A289B3898C9188608C9307
:10015000A289B3898C9180688C930288F389E02D01
:1001600080818F7D80830895AF92BF92CF92DF927E
:10017000EF92FF920F931F93CF93DF936C017B015C
:100180008B01040F151FEB015E01AE18BF08C017ED
:10019000D10759F06991D601ED91FC910190F08160
:1001A000E02DC6010995892B79F7C501DF91CF9123
:1001B0001F910F91FF90EF90DF90CF90BF90AF9085
:1001C0000895FC01538D448D252F30E0842F90E05D
:1001D000821B930B541710F0CF9608950197089542
:1001E000FC01918D828D981761F0A28DAE0FBF2F0B
:1001F000B11D5D968C91928D9F5F9F73928F90E061
:1002000008958FEF9FEF0895FC01918D828D9817CF
:1002100031F0828DE80FF11D858D90E008958FEF0C
:100220009FEF0895FC01918D228D892F90E0805CD5
:100230009F4F821B91098F73992708958BE191E05D
:100240000E94120121E0892B09F420E0822F0895F9
:1002500080E090E0892B29F00E941E0181110C940E
:1002600000000895FC01A48DA80FB92FB11DA35A59
:10027000BF4F2C91848D90E001968F739927848FC6
:10028000A689B7892C93A089B1898C9183708064E9
:100290008C93938D848D981306C00288F389E02D8A
:1002A00080818F7D80830895EF92FF920F931F933B
:1002B000CF93DF93EC0181E0888F9B8D8C8D981319
:1002C0001AC0E889F989808185FF15C09FB7F89425
:1002D000EE89FF896083E889F98980818370806471
:1002E00080839FBF81E090E0DF91CF911F910F91BC
:1002F000FF90EF900895F62E0B8D10E00F5F1F4FCB
:100300000F731127E02E8C8D8E110CC00FB607FCD9
:10031000FACFE889F989808185FFF5CFCE010E9467
:100320003201F1CFEB8DEC0FFD2FF11DE35AFF4FA2
:10033000F0829FB7F8940B8FEA89FB8980818062F5
:10034000CFCFCF93DF93EC01888D8823B9F0AA89B2
:10035000BB89E889F9898C9185FD03C0808186FD80
:100360000DC00FB607FCF7CF8C9185FFF2CF8081CF
:1003700085FFEDCFCE010E943201E9CFDF91CF9111
:10038000089590E0FC01E458FF4F2491FC01E255F0
:10039000FF4F3491FC01E656FF4FE491EE23C9F084
:1003A000222339F0233001F1A8F4213019F1223051
:1003B00029F1F0E0EE0FFF1FEE58FF4FA591B49129
:1003C0008FB7F894EC91611126C030953E233C9391
:1003D0008FBF08952730A9F02830C9F0243049F79D
:1003E000809180008F7D03C0809180008F77809303
:1003F0008000DFCF84B58F7784BDDBCF84B58F7D60
:10040000FBCF8091B0008F778093B000D2CF8091E6
:10041000B0008F7DF9CF3E2BDACFCF93DF9390E002
:10042000FC01E255FF4F249186569F4FFC018491B9
:100430008823D1F090E0880F991FFC01E859FF4F05
:10044000A591B491FC01EE58FF4FC591D491611173
:100450000EC09FB7F8948C91E22FE0958E238C9379
:100460002881E223E8839FBFDF91CF9108958FB762
:10047000F894EC91E22BEC938FBFF6CF3FB7F89452
:100480008091170190911801A0911901B0911A0162
:1004900026B5A89B05C02F3F19F00196A11DB11DDF
:1004A0003FBFBA2FA92F982F8827BC01CD01620F1B
:1004B000711D811D911D42E0660F771F881F991FD6
:1004C0004A95D1F708958F929F92AF92BF92CF92A3
:1004D000DF92EF92FF924B015C010E943E026B01A2
:1004E0007C010E943E026C197D098E099F09683EBD
:1004F000734081059105A8F321E0821A9108A108B3
:10050000B10888EEC80E83E0D81EE11CF11C8114EE
:100510009104A104B10429F7FF90EF90DF90CF90F0
:10052000BF90AF909F908F9008951F920F920FB63B
:100530000F9211242F933F934F935F936F937F9369
:100540008F939F93AF93BF93EF93FF938BE191E0D2
:100550000E943201FF91EF91BF91AF919F918F91D6
:100560007F916F915F914F913F912F910F900FBEAF
:100570000F901F9018951F920F920FB60F92112493
:100580002F938F939F93EF93FF93E0912B01F09123
:100590002C018081E0913101F091320182FD1BC07C
:1005A0009081809134018F5F8F7320913501821784
:1005B00041F0E0913401F0E0E55EFE4F958F8093CD
:1005C0003401FF91EF919F918F912F910F900FBE6A
:1005D0000F901F9018958081F4CF1F920F920FB645
:1005E0000F9211242F933F938F939F93AF93BF93B9
:1005F0008091130190911401A0911501B091160101
:100600003091120123E0230F2D3758F50196A11DDB
:10061000B11D209312018093130190931401A093B4
:100620001501B09316018091170190911801A091C6
:100630001901B0911A010196A11DB11D80931701F6
:1006400090931801A0931901B0931A01BF91AF9133
:100650009F918F913F912F910F900FBE0F901F9000
:10066000189526E8230F0296A11DB11DD2CFCF9277
:10067000DF92EF92FF920F931F93E82FF92F05C09F
:10068000015011092109310961F1908196239417D4
:10069000B9F305C0015011092109310911F1908107
:1006A00096239413F7CFC12CD12CE12CF12C0AC046
:1006B0008FEFC81AD80AE80AF80A0C151D052E058E
:1006C0003F0579F080818623841791F36C2D7D2D71
:1006D0008E2D9F2D1F910F91FF90EF90DF90CF9067
:1006E000089560E070E080E090E01F910F91FF902E
:1006F000EF90DF90CF900895789484B5826084BDA8
:1007000084B5816084BD85B5826085BD85B5816015
:1007100085BD80916E00816080936E001092810093
:10072000809181008260809381008091810081604E
:10073000809381008091800081608093800080910F
:10074000B10084608093B1008091B000816080939B
:10075000B00080917A00846080937A0080917A0062
:10076000826080937A0080917A00816080937A0021
:1007700080917A00806880937A001092C1000E9474
:100780008C0061E089E00E940D0260E088E00E9438
:100790000D0261E085E00E940D0261E087E00E94A9
:1007A0000D0261E086E00E940D02C6EBD0E042EA55
:1007B000E42E40E0F42E50E0C52E50E0D52E0E94ED
:1007C0008C0060E089E00E94C10162E070E080E09E
:1007D00090E00E94630261E089E00E94C1016AE04A
:1007E00070E080E090E00E94630260E089E00E9497
:1007F000C101FE016491F7018491E82FF0E0EE0F52
:10080000FF1FE057FF4F8591949100E412E42FE021
:1008100030E0462F0E94370361157105810591056F
:1008200029F06F5F7F4F8F4F9F4F9F7095958795F2
:10083000779567950E9464052DEC3CEC48EE51E4F9
:100840000E94BA040E942C054B015C0160E085E027
:100850000E94C10160E087E00E94C10160E086E083
:100860000E94C101F8E28F169104A104B1040CF0BA
:1008700048C061E086E00E94C10160ED77E080E061
:1008800090E00E94630284E188169104A104B104FF
:10089000C4F561E086E00E94C10160ED77E080E090
:1008A00090E00E94630261E085E00E94C10160ED7A
:1008B00077E080E090E00E946302EAE08E16910407
:1008C000A104B104F4F461E086E00E94C10160ED8E
:1008D00077E080E090E00E94630261E085E00E94A2
:1008E000C10160ED77E080E090E00E94630261E08A
:1008F00087E00E94C10160ED77E080E090E00E9417
:100900006302C114D10409F45ACF0E941E01882346
:1009100009F455CF0E94000052CFEBE1F1E01382C1
:10092000128288EE93E0A0E0B0E084839583A683F2
:10093000B78384E091E09183808385EC90E0958794
:10094000848784EC90E09787868780EC90E0918B99
:10095000808B81EC90E0938B828B82EC90E0958B86
:10096000848B86EC90E0978B868B118E128E138E83
:10097000148E08950E94CE040C94B6050E94AF0513
:1009800058F00E94A80540F029F45F3F29F00C942C
:100990009F0551110C94EA050C94A5050E94C7050A
:1009A00068F39923B1F3552391F3951B550BBB279E
:1009B000AA2762177307840738F09F5F5F4F220FE3
:1009C000331F441FAA1FA9F335D00E2E3AF0E0E8DA
:1009D00032D091505040E695001CCAF72BD0FE2F24
:1009E00029D0660F771F881FBB1F261737074807B8
:1009F000AB07B0E809F0BB0B802DBF01FF27935870
:100A00005F4F3AF09E3F510578F00C949F050C948F
:100A1000EA055F3FE4F3983ED4F3869577956795B2
:100A2000B795F7959F5FC9F7880F911D96958795A4
:100A300097F90895E1E0660F771F881FBB1F6217C3
:100A400073078407BA0720F0621B730B840BBA0B81
:100A5000EE1F88F7E09508950E9433056894B11160
:100A60000C94EA0508950E94CF0588F09F5798F0EE
:100A7000B92F9927B751B0F0E1F0660F771F881FA3
:100A8000991F1AF0BA95C9F714C0B13091F00E94BD
:100A9000E905B1E008950C94E905672F782F8827C0
:100AA000B85F39F0B93FCCF3869577956795B395E4
:100AB000D9F73EF490958095709561957F4F8F4F53
:100AC0009F4F0895E89409C097FB3EF49095809558
:100AD000709561957F4F8F4F9F4F9923A9F0F92F04
:100AE00096E9BB279395F695879577956795B79582
:100AF000F111F8CFFAF4BB0F11F460FF1BC06F5F68
:100B00007F4F8F4F9F4F16C0882311F096E911C079
:100B1000772321F09EE8872F762F05C0662371F09A
:100B200096E8862F70E060E02AF09A95660F771FAE
:100B3000881FDAF7880F9695879597F9089597F9A2
:100B40009F6780E870E060E008959FEF80EC089573
:100B500000240A941616170618060906089500249C
:100B60000A9412161306140605060895092E039416
:100B7000000C11F4882352F0BB0F40F4BF2B11F48A
:100B800060FF04C06F5F7F4F8F4F9F4F089557FDE9
:100B90009058440F551F59F05F3F71F04795880FEB
:100BA00097FB991F61F09F3F79F087950895121682
:100BB00013061406551FF2CF4695F1DF08C016162E
:100BC00017061806991FF1CF8695710561050894DF
:100BD0000895E894BB2766277727CB0197F90895F6
:100BE000EE0FFF1F0590F491E02D0994F894FFCFCC
:100BF000000000005401B400E100A1011201F00066
:020C00000401ED
:00000001FF
